:1000000071C000008CC000008AC0000088C00000E1
:1000100086C0000084C0000051C1000080C0000004
:100020007EC000007CC000007AC0000078C00000E4
:1000300076C0000074C0000072C0000070C00000F4
:100040006EC00000EAC000006AC0000068C0000086
:1000500066C0000064C0000062C0000060C0000014
:100060005EC000005CC000005AC0000058C0000024
:1000700056C0000054C0000052C0000050C0000034
:100080004EC000004CC000004AC0000048C0000044
:1000900046C0000044C0000042C0000040C0000054
:1000A0003EC000003CC000003AC0000038C0000064
:1000B00036C0000034C0000032C0000030C0000074
:1000C0002EC000002CC000002AC0000028C0000084
:1000D00026C0000024C0000022C0000020C0000094
:1000E0001EC0000011241FBECFEFD1E2DEBFCDBF86
:1000F00012E0A0E0B2E0E4E9FDE000E00BBF02C0E6
:1001000007900D92A631B107D9F712E0A6E1B2E04F
:1001100001C01D92A932B107E1F79AD539C670CF57
:1001200087E690E09093C5008093C400E0ECF0E097
:1001300080818D7F8083E2ECF0E080818660808327
:10014000E1ECF0E080818860808308959091C000A8
:1001500095FFFCCF8093C6000895CF93DF93EC0109
:1001600001C0F4DF89918111FCCFDF91CF91089517
:10017000CF93DF9300D000D0CDB7DEB74AE050E098
:10018000BE016F5F7F4F90E0CBD5CE010196E5DFDA
:100190000F900F900F900F90DF91CF910895CF9314
:1001A000DF9300D000D000D0CDB7DEB74AE050E0FA
:1001B000BE016F5F7F4FB4D5CE010196CEDF26968C
:1001C0000FB6F894DEBF0FBECDBFDF91CF9108957B
:1001D000259A2D9A279A249AE1E0F1E080818064A3
:1001E00080836D982698EAE6F0E080818C608083B9
:1001F0000895E1E8F0E080818260808380818860FA
:10020000808380E49FE19093890080938800EFE6EB
:10021000F0E080818260808308951F920F920FB674
:100220000F9211240BB60F922F938F939F93AF933E
:10023000BF93EF93FF932FB7F89480912002811121
:100240000CC080ED97E0909389008093880081E056
:1002500080932002ED982D9819C080E49FE190933F
:100260008900809388001092200288E0E1E2F2E0A9
:10027000A7E1B2E001900D928A95E1F72C981092D7
:100280001F0210921602E59AED9A2D9A2FBFFF9148
:10029000EF91BF91AF919F918F912F910F900BBED6
:1002A0000F900FBE0F901F9018952C9A80911702F7
:1002B00080FF02C02F9808952F9A08951F920F92E1
:1002C0000FB60F9211240BB60F920F931F932F931B
:1002D0003F934F935F936F937F938F939F93AF93CE
:1002E000BF93CF93DF93EF93FF93809102018064DC
:1002F00080930201809102018F7B809302011E9BFB
:1003000085C480911F02873109F46DC208F054C082
:100310008B3009F47DC140F5853009F407C190F4B4
:10032000823009F4CAC038F4882309F49BC08130B4
:1003300009F06CC4AAC0833009F4D2C0843009F03B
:1003400065C4E1C0883009F42AC138F4863009F464
:1003500000C1873009F05AC40FC1893009F432C195
:100360008A3009F053C441C1813109F4C4C190F409
:100370008E3009F486C138F48C3009F45CC18D30BC
:1003800009F044C46BC18F3009F48EC1803109F08B
:100390003DC49DC1843109F4EAC138F4823109F4C5
:1003A000BEC1833109F032C4CEC1853109F4F3C135
:1003B000863109F02BC403C2833209F407C340F528
:1003C0008D3109F488C290F48A3109F448C238F4B6
:1003D000883109F41CC2893109F018C42CC28B3150
:1003E00009F451C28C3109F011C461C2803209F4A0
:1003F000AEC238F48E3109F482C28F3109F006C4DE
:1004000092C2813209F4B8C2823209F0FFC3C9C274
:10041000893209F459C390F4863209F416C338F4CA
:10042000843209F4E8C2853209F0F0C3F9C2873298
:1004300009F420C3883209F0E9C331C38C3209F4CE
:1004400082C338F48A3209F454C38B3209F0DEC314
:1004500065C38E3209F4A1C308F48AC38F3209F050
:10046000D5C3B0C300911702109118022091190250
:1004700030911A0240911B0250911C0260911D02A2
:1004800070911E02802F816012C00091170210919E
:1004900018022091190230911A0240911B025091CA
:1004A0001C0260911D0270911E02802F8260912FAC
:1004B000A22FB32FC42FD52F99C3009117021091EB
:1004C00018022091190230911A0240911B0250919A
:1004D0001C0260911D0270911E02802F8460E7CF84
:1004E00000911702109118022091190230911A02FE
:1004F00040911B0250911C0260911D0270911E02DE
:10050000802F8860D4CF009117021091180220919B
:10051000190230911A0240911B0250911C02609105
:100520001D0270911E02802F8061C1CF00911702C1
:10053000109118022091190230911A0240911B0269
:1005400050911C0260911D0270911E02802F8062EA
:10055000AECF00911702109118022091190230912C
:100560001A0240911B0250911C0260911D02709171
:100570001E02802F80649BCF0091170210911802F9
:100580002091190230911A0240911B0250911C02D5
:1005900060911D0270911E02802F806888CF0091AB
:1005A0001702109118022091190230911A024091FD
:1005B0001B0250911C0260911D0270911E02C80125
:1005C000916076CF009117021091180220911902C4
:1005D00030911A0240911B0250911C0260911D0241
:1005E00070911E02C801926063CF009117021091B2
:1005F00018022091190230911A0240911B02509169
:100600001C0260911D0270911E02C801946050CFBF
:1006100000911702109118022091190230911A02CC
:1006200040911B0250911C0260911D0270911E02AC
:10063000C80198603DCF00911702109118022091D7
:10064000190230911A0240911B0250911C026091D4
:100650001D0270911E02C80190612ACF00911702FD
:10066000109118022091190230911A0240911B0238
:1006700050911C0260911D0270911E02C80190628F
:1006800017CF009117021091180220911902309192
:100690001A0240911B0250911C0260911D02709140
:1006A0001E02C801906404CF009117021091180235
:1006B0002091190230911A0240911B0250911C02A4
:1006C00060911D0270911E02C8019068F1CE0091E8
:1006D0001702109118022091190230911A024091CC
:1006E0001B0250911C0260911D0270911E02C801F4
:1006F000A22FA160DECE0091170210911802209166
:10070000190230911A0240911B0250911C02609113
:100710001D0270911E02C801A22FA260CACE0091D4
:100720001702109118022091190230911A0240917B
:100730001B0250911C0260911D0270911E02C801A3
:10074000A22FA460B6CE009117021091180220913A
:10075000190230911A0240911B0250911C026091C3
:100760001D0270911E02C801A22FA860A2CE0091A6
:100770001702109118022091190230911A0240912B
:100780001B0250911C0260911D0270911E02C80153
:10079000A22FA0618ECE0091170210911802209115
:1007A000190230911A0240911B0250911C02609173
:1007B0001D0270911E02C801A22FA0627ACE009184
:1007C0001702109118022091190230911A024091DB
:1007D0001B0250911C0260911D0270911E02C80103
:1007E000A22FA06466CE00911702109118022091EA
:1007F000190230911A0240911B0250911C02609123
:100800001D0270911E02C801A22FA06852CE009155
:100810001702109118022091190230911A0240918A
:100820001B0250911C0260911D0270911E02C801B2
:10083000D901B1603FCE00911702109118022091AA
:10084000190230911A0240911B0250911C026091D2
:100850001D0270911E02C801D901B2602BCE009119
:100860001702109118022091190230911A0240913A
:100870001B0250911C0260911D0270911E02C80162
:10088000D901B46017CE009117021091180220917F
:10089000190230911A0240911B0250911C02609182
:1008A0001D0270911E02C801D901B86003CE0091EB
:1008B0001702109118022091190230911A024091EA
:1008C0001B0250911C0260911D0270911E02C80112
:1008D000D901B061EFCD009117021091180220915B
:1008E000190230911A0240911B0250911C02609132
:1008F0001D0270911E02C801D901B062DBCD0091CA
:100900001702109118022091190230911A02409199
:100910001B0250911C0260911D0270911E02C801C1
:10092000D901B064C7CD009117021091180220912F
:10093000190230911A0240911B0250911C026091E1
:100940001D0270911E02C801D901B068B3CD00919B
:100950001702109118022091190230911A02409149
:100960001B0250911C0260911D0270911E02C80171
:10097000D901C42FC1609FCD0091170210911802B8
:100980002091190230911A0240911B0250911C02D1
:1009900060911D0270911E02C801D901C42FC2606E
:1009A0008ACD0091170210911802209119023091FE
:1009B0001A0240911B0250911C0260911D0270911D
:1009C0001E02C801D901C42FC46075CD0091170261
:1009D000109118022091190230911A0240911B02C5
:1009E00050911C0260911D0270911E02C801D90134
:1009F000C42FC86060CD0091170210911802209199
:100A0000190230911A0240911B0250911C02609110
:100A10001D0270911E02C801D901C42FC0614BCDC7
:100A200000911702109118022091190230911A02B8
:100A300040911B0250911C0260911D0270911E0298
:100A4000C801D901C42FC06236CD009117021091A0
:100A500018022091190230911A0240911B02509104
:100A60001C0260911D0270911E02C801D901C42FA1
:100A7000C06421CD00911702109118022091190233
:100A800030911A0240911B0250911C0260911D028C
:100A900070911E02C801D901C42FC0680CCD00910D
:100AA0001702109118022091190230911A024091F8
:100AB0001B0250911C0260911D0270911E02C80120
:100AC000D901EA01D16092C0009117021091180279
:100AD0002091190230911A0240911B0250911C0280
:100AE00060911D0270911E02C801D901EA01D26015
:100AF0007DC00091170210911802209119023091C7
:100B00001A0240911B0250911C0260911D027091CB
:100B10001E02C801D901EA01D46068C00091170221
:100B2000109118022091190230911A0240911B0273
:100B300050911C0260911D0270911E02C801D901E2
:100B4000EA01D86053C00091170210911802209159
:100B5000190230911A0240911B0250911C026091BF
:100B60001D0270911E02C801D901EA01D0613EC088
:100B700000911702109118022091190230911A0267
:100B800040911B0250911C0260911D0270911E0247
:100B9000C801D901EA01D06229C000911702109161
:100BA00018022091190230911A0240911B025091B3
:100BB0001C0260911D0270911E02C801D901EA0158
:100BC000D06414C0009117021091180220911902EC
:100BD00030911A0240911B0250911C0260911D023B
:100BE00070911E02C801D901EA01D06880931702F2
:100BF00090931802A0931902B0931A02C0931B029B
:100C0000D0931C0260931D0270931E0280911F02FC
:100C10008F5F80931F02803321F447DB81E0809354
:100C20001602FF91EF91DF91CF91BF91AF919F910C
:100C30008F917F916F915F914F913F912F911F9174
:100C40000F910F900BBE0F900FBE0F901F90189535
:100C5000CDB7DEB72997DEBFCDBFBADACADA60DA20
:100C600080E092E07ADA789458E0C52E80911602FE
:100C70008823E1F33FB7F894E7E1F2E0DE01119653
:100C80008C2D01900D928A95E1F79A8196958B8132
:100C9000282F279522272795E22EE92A982F969527
:100CA00023E0F22EF922982F9695969596958C81B1
:100CB000282F2295220F207E022F092B982F969500
:100CC00096959695192F13708295869587709D81BC
:100CD0004FE0D42ED922DD0CDD0CDD0CD82A929504
:100CE0009F702E8123702295207F292B3FBF86E0A5
:100CF00092E0298732DAC70152DA89E092E02DDAF0
:100D0000C8014DDA8DE092E028DA2985822F30DAA9
:100D100081E192E022DA8D2D2BDA8AE017DAA6CF74
:100D2000FB019F0142306CF045325CF4642F772761
:100D30001BD0805D8A330CF0895D8193CB010097D5
:100D4000A9F71082C90100C0DC01FC01672F719175
:100D50007723E1F7329704C07C916D9370836291A1
:100D6000AE17BF07C8F30895AA1BBB1B51E107C00C
:100D7000AA1FBB1FA617B70710F0A61BB70B881F2B
:100D8000991F5A95A9F780959095BC01CD010895BA
:040D9000F894FFCF05
:100D9400726561647900783D0020793D0020723DE0
:060DA40000206D3D00007F
:00000001FF
